:100000000C942A000C943F000C943F000C943F0089
:100010000C943F000C943F000C943F000C943F0064
:100020000C943F000C943F000C943F000C943F0054
:100030000C943F000C943F000C943F000C943F0044
:100040000C943F000C943F000C943F000C943F0034
:100050000C943F0011241FBECFE5D8E0DEBFCDBF1A
:1000600010E0A0E6B0E0ECEDF0E002C005900D92EB
:10007000AA36B107D9F70E9441000C946C000C9489
:100080000000CF93DF93CDB7DEB72A970FB6F89471
:10009000DEBF0FBECDBF8AB38FEF8ABB8BBB8AE0BA
:1000A000E0E6F0E0DE01119601900D928A95E1F70D
:1000B0009E01255F3F4FFE01319681918BBB4FE33F
:1000C0008DE093E0415080409040E1F700C0000097
:0C00D000E217F30791F7EFCFF894FFCF91
:0A00DC0000010203040506070809ED
:00000001FF
